{
  "address": "0x9C07ab0E706fab71113b27dAFd8a51261453a46f",
  "abi": [
    {
      "inputs": [
        {
          "internalType": "string",
          "name": "name",
          "type": "string"
        },
        {
          "internalType": "string",
          "name": "symbol",
          "type": "string"
        },
        {
          "internalType": "string",
          "name": "baseTokenURI",
          "type": "string"
        }
      ],
      "stateMutability": "nonpayable",
      "type": "constructor"
    },
    {
      "anonymous": false,
      "inputs": [
        {
          "indexed": true,
          "internalType": "address",
          "name": "owner",
          "type": "address"
        },
        {
          "indexed": true,
          "internalType": "address",
          "name": "approved",
          "type": "address"
        },
        {
          "indexed": true,
          "internalType": "uint256",
          "name": "tokenId",
          "type": "uint256"
        }
      ],
      "name": "Approval",
      "type": "event"
    },
    {
      "anonymous": false,
      "inputs": [
        {
          "indexed": true,
          "internalType": "address",
          "name": "owner",
          "type": "address"
        },
        {
          "indexed": true,
          "internalType": "address",
          "name": "operator",
          "type": "address"
        },
        {
          "indexed": false,
          "internalType": "bool",
          "name": "approved",
          "type": "bool"
        }
      ],
      "name": "ApprovalForAll",
      "type": "event"
    },
    {
      "anonymous": false,
      "inputs": [
        {
          "indexed": true,
          "internalType": "address",
          "name": "previousOwner",
          "type": "address"
        },
        {
          "indexed": true,
          "internalType": "address",
          "name": "newOwner",
          "type": "address"
        }
      ],
      "name": "OwnershipTransferred",
      "type": "event"
    },
    {
      "anonymous": false,
      "inputs": [
        {
          "indexed": true,
          "internalType": "address",
          "name": "from",
          "type": "address"
        },
        {
          "indexed": true,
          "internalType": "address",
          "name": "to",
          "type": "address"
        },
        {
          "indexed": true,
          "internalType": "uint256",
          "name": "tokenId",
          "type": "uint256"
        }
      ],
      "name": "Transfer",
      "type": "event"
    },
    {
      "inputs": [],
      "name": "MAX_ELEMENTS",
      "outputs": [
        {
          "internalType": "uint256",
          "name": "",
          "type": "uint256"
        }
      ],
      "stateMutability": "view",
      "type": "function"
    },
    {
      "inputs": [
        {
          "internalType": "address",
          "name": "to",
          "type": "address"
        },
        {
          "internalType": "uint256",
          "name": "tokenId",
          "type": "uint256"
        }
      ],
      "name": "approve",
      "outputs": [],
      "stateMutability": "nonpayable",
      "type": "function"
    },
    {
      "inputs": [
        {
          "internalType": "address",
          "name": "owner",
          "type": "address"
        }
      ],
      "name": "balanceOf",
      "outputs": [
        {
          "internalType": "uint256",
          "name": "",
          "type": "uint256"
        }
      ],
      "stateMutability": "view",
      "type": "function"
    },
    {
      "inputs": [],
      "name": "buy",
      "outputs": [],
      "stateMutability": "payable",
      "type": "function"
    },
    {
      "inputs": [
        {
          "internalType": "uint256",
          "name": "tokenId",
          "type": "uint256"
        }
      ],
      "name": "getApproved",
      "outputs": [
        {
          "internalType": "address",
          "name": "",
          "type": "address"
        }
      ],
      "stateMutability": "view",
      "type": "function"
    },
    {
      "inputs": [
        {
          "internalType": "address",
          "name": "owner",
          "type": "address"
        },
        {
          "internalType": "address",
          "name": "operator",
          "type": "address"
        }
      ],
      "name": "isApprovedForAll",
      "outputs": [
        {
          "internalType": "bool",
          "name": "",
          "type": "bool"
        }
      ],
      "stateMutability": "view",
      "type": "function"
    },
    {
      "inputs": [],
      "name": "name",
      "outputs": [
        {
          "internalType": "string",
          "name": "",
          "type": "string"
        }
      ],
      "stateMutability": "view",
      "type": "function"
    },
    {
      "inputs": [],
      "name": "owner",
      "outputs": [
        {
          "internalType": "address",
          "name": "",
          "type": "address"
        }
      ],
      "stateMutability": "view",
      "type": "function"
    },
    {
      "inputs": [
        {
          "internalType": "uint256",
          "name": "tokenId",
          "type": "uint256"
        }
      ],
      "name": "ownerOf",
      "outputs": [
        {
          "internalType": "address",
          "name": "",
          "type": "address"
        }
      ],
      "stateMutability": "view",
      "type": "function"
    },
    {
      "inputs": [],
      "name": "price",
      "outputs": [
        {
          "internalType": "uint256",
          "name": "",
          "type": "uint256"
        }
      ],
      "stateMutability": "view",
      "type": "function"
    },
    {
      "inputs": [],
      "name": "renounceOwnership",
      "outputs": [],
      "stateMutability": "nonpayable",
      "type": "function"
    },
    {
      "inputs": [
        {
          "internalType": "address",
          "name": "from",
          "type": "address"
        },
        {
          "internalType": "address",
          "name": "to",
          "type": "address"
        },
        {
          "internalType": "uint256",
          "name": "tokenId",
          "type": "uint256"
        }
      ],
      "name": "safeTransferFrom",
      "outputs": [],
      "stateMutability": "nonpayable",
      "type": "function"
    },
    {
      "inputs": [
        {
          "internalType": "address",
          "name": "from",
          "type": "address"
        },
        {
          "internalType": "address",
          "name": "to",
          "type": "address"
        },
        {
          "internalType": "uint256",
          "name": "tokenId",
          "type": "uint256"
        },
        {
          "internalType": "bytes",
          "name": "_data",
          "type": "bytes"
        }
      ],
      "name": "safeTransferFrom",
      "outputs": [],
      "stateMutability": "nonpayable",
      "type": "function"
    },
    {
      "inputs": [
        {
          "internalType": "address",
          "name": "operator",
          "type": "address"
        },
        {
          "internalType": "bool",
          "name": "approved",
          "type": "bool"
        }
      ],
      "name": "setApprovalForAll",
      "outputs": [],
      "stateMutability": "nonpayable",
      "type": "function"
    },
    {
      "inputs": [
        {
          "internalType": "bytes4",
          "name": "interfaceId",
          "type": "bytes4"
        }
      ],
      "name": "supportsInterface",
      "outputs": [
        {
          "internalType": "bool",
          "name": "",
          "type": "bool"
        }
      ],
      "stateMutability": "view",
      "type": "function"
    },
    {
      "inputs": [],
      "name": "symbol",
      "outputs": [
        {
          "internalType": "string",
          "name": "",
          "type": "string"
        }
      ],
      "stateMutability": "view",
      "type": "function"
    },
    {
      "inputs": [
        {
          "internalType": "uint256",
          "name": "index",
          "type": "uint256"
        }
      ],
      "name": "tokenByIndex",
      "outputs": [
        {
          "internalType": "uint256",
          "name": "",
          "type": "uint256"
        }
      ],
      "stateMutability": "view",
      "type": "function"
    },
    {
      "inputs": [
        {
          "internalType": "address",
          "name": "owner",
          "type": "address"
        },
        {
          "internalType": "uint256",
          "name": "index",
          "type": "uint256"
        }
      ],
      "name": "tokenOfOwnerByIndex",
      "outputs": [
        {
          "internalType": "uint256",
          "name": "",
          "type": "uint256"
        }
      ],
      "stateMutability": "view",
      "type": "function"
    },
    {
      "inputs": [
        {
          "internalType": "uint256",
          "name": "tokenId",
          "type": "uint256"
        }
      ],
      "name": "tokenURI",
      "outputs": [
        {
          "internalType": "string",
          "name": "",
          "type": "string"
        }
      ],
      "stateMutability": "view",
      "type": "function"
    },
    {
      "inputs": [],
      "name": "totalSupply",
      "outputs": [
        {
          "internalType": "uint256",
          "name": "",
          "type": "uint256"
        }
      ],
      "stateMutability": "view",
      "type": "function"
    },
    {
      "inputs": [
        {
          "internalType": "address",
          "name": "from",
          "type": "address"
        },
        {
          "internalType": "address",
          "name": "to",
          "type": "address"
        },
        {
          "internalType": "uint256",
          "name": "tokenId",
          "type": "uint256"
        }
      ],
      "name": "transferFrom",
      "outputs": [],
      "stateMutability": "nonpayable",
      "type": "function"
    },
    {
      "inputs": [
        {
          "internalType": "address",
          "name": "newOwner",
          "type": "address"
        }
      ],
      "name": "transferOwnership",
      "outputs": [],
      "stateMutability": "nonpayable",
      "type": "function"
    },
    {
      "inputs": [],
      "name": "withdraw",
      "outputs": [],
      "stateMutability": "nonpayable",
      "type": "function"
    }
  ],
  "transactionHash": "0x804f684dbad67471dfde088af18bcb5212c6fad4455df433ae7f335fe7730551",
  "args": [
    "Crypt0Donuts",
    "CD",
    "https://ipfs.io/ipfs/Qme5LkL37X9BdQAGQp9UwgP3uBmYPWseELHVUVtjimUopA/"
  ],
  "numDeployments": 1,
  "solcInputHash": "3439c505c691572f3e47da59acd53074",
  "bytecode": "0x60806040523480156200001157600080fd5b5060405162003c5538038062003c5583398181016040528101906200003791906200029f565b82828160009080519060200190620000519291906200017d565b5080600190805190602001906200006a9291906200017d565b5050506200008d62000081620000af60201b60201c565b620000b760201b60201c565b80600b9080519060200190620000a59291906200017d565b50505050620004b0565b600033905090565b6000600a60009054906101000a900473ffffffffffffffffffffffffffffffffffffffff16905081600a60006101000a81548173ffffffffffffffffffffffffffffffffffffffff021916908373ffffffffffffffffffffffffffffffffffffffff1602179055508173ffffffffffffffffffffffffffffffffffffffff168173ffffffffffffffffffffffffffffffffffffffff167f8be0079c531659141344cd1fd0a4f28419497f9722a3daafe3b4186f6b6457e060405160405180910390a35050565b8280546200018b90620003d5565b90600052602060002090601f016020900481019282620001af5760008555620001fb565b82601f10620001ca57805160ff1916838001178555620001fb565b82800160010185558215620001fb579182015b82811115620001fa578251825591602001919060010190620001dd565b5b5090506200020a91906200020e565b5090565b5b80821115620002295760008160009055506001016200020f565b5090565b6000620002446200023e8462000369565b62000340565b9050828152602081018484840111156200025d57600080fd5b6200026a8482856200039f565b509392505050565b600082601f8301126200028457600080fd5b8151620002968482602086016200022d565b91505092915050565b600080600060608486031215620002b557600080fd5b600084015167ffffffffffffffff811115620002d057600080fd5b620002de8682870162000272565b935050602084015167ffffffffffffffff811115620002fc57600080fd5b6200030a8682870162000272565b925050604084015167ffffffffffffffff8111156200032857600080fd5b620003368682870162000272565b9150509250925092565b60006200034c6200035f565b90506200035a82826200040b565b919050565b6000604051905090565b600067ffffffffffffffff82111562000387576200038662000470565b5b62000392826200049f565b9050602081019050919050565b60005b83811015620003bf578082015181840152602081019050620003a2565b83811115620003cf576000848401525b50505050565b60006002820490506001821680620003ee57607f821691505b6020821081141562000405576200040462000441565b5b50919050565b62000416826200049f565b810181811067ffffffffffffffff8211171562000438576200043762000470565b5b80604052505050565b7f4e487b7100000000000000000000000000000000000000000000000000000000600052602260045260246000fd5b7f4e487b7100000000000000000000000000000000000000000000000000000000600052604160045260246000fd5b6000601f19601f8301169050919050565b61379580620004c06000396000f3fe6080604052600436106101405760003560e01c80636352211e116100b6578063a22cb4651161006f578063a22cb4651461045e578063a6f2ae3a14610487578063b88d4fde14610491578063c87b56dd146104ba578063e985e9c5146104f7578063f2fde38b1461053457610140565b80636352211e1461034c57806370a0823114610389578063715018a6146103c65780638da5cb5b146103dd57806395d89b4114610408578063a035b1fe1461043357610140565b806323b872dd1161010857806323b872dd1461023e5780632f745c59146102675780633502a716146102a45780633ccfd60b146102cf57806342842e0e146102e65780634f6ccce71461030f57610140565b806301ffc9a71461014557806306fdde0314610182578063081812fc146101ad578063095ea7b3146101ea57806318160ddd14610213575b600080fd5b34801561015157600080fd5b5061016c60048036038101906101679190612677565b61055d565b6040516101799190612b09565b60405180910390f35b34801561018e57600080fd5b5061019761056f565b6040516101a49190612b24565b60405180910390f35b3480156101b957600080fd5b506101d460048036038101906101cf91906126c9565b610601565b6040516101e19190612aa2565b60405180910390f35b3480156101f657600080fd5b50610211600480360381019061020c919061263b565b610686565b005b34801561021f57600080fd5b5061022861079e565b6040516102359190612dc6565b60405180910390f35b34801561024a57600080fd5b5061026560048036038101906102609190612535565b6107ab565b005b34801561027357600080fd5b5061028e6004803603810190610289919061263b565b61080b565b60405161029b9190612dc6565b60405180910390f35b3480156102b057600080fd5b506102b96108b0565b6040516102c69190612dc6565b60405180910390f35b3480156102db57600080fd5b506102e46108b5565b005b3480156102f257600080fd5b5061030d60048036038101906103089190612535565b610980565b005b34801561031b57600080fd5b50610336600480360381019061033191906126c9565b6109a0565b6040516103439190612dc6565b60405180910390f35b34801561035857600080fd5b50610373600480360381019061036e91906126c9565b610a37565b6040516103809190612aa2565b60405180910390f35b34801561039557600080fd5b506103b060048036038101906103ab91906124d0565b610ae9565b6040516103bd9190612dc6565b60405180910390f35b3480156103d257600080fd5b506103db610ba1565b005b3480156103e957600080fd5b506103f2610c29565b6040516103ff9190612aa2565b60405180910390f35b34801561041457600080fd5b5061041d610c53565b60405161042a9190612b24565b60405180910390f35b34801561043f57600080fd5b50610448610ce5565b6040516104559190612dc6565b60405180910390f35b34801561046a57600080fd5b50610485600480360381019061048091906125ff565b610cef565b005b61048f610d05565b005b34801561049d57600080fd5b506104b860048036038101906104b39190612584565b610db1565b005b3480156104c657600080fd5b506104e160048036038101906104dc91906126c9565b610e13565b6040516104ee9190612b24565b60405180910390f35b34801561050357600080fd5b5061051e600480360381019061051991906124f9565b610eba565b60405161052b9190612b09565b60405180910390f35b34801561054057600080fd5b5061055b600480360381019061055691906124d0565b610f4e565b005b600061056882611046565b9050919050565b60606000805461057e90612feb565b80601f01602080910402602001604051908101604052809291908181526020018280546105aa90612feb565b80156105f75780601f106105cc576101008083540402835291602001916105f7565b820191906000526020600020905b8154815290600101906020018083116105da57829003601f168201915b5050505050905090565b600061060c826110c0565b61064b576040517f08c379a000000000000000000000000000000000000000000000000000000000815260040161064290612d06565b60405180910390fd5b6004600083815260200190815260200160002060009054906101000a900473ffffffffffffffffffffffffffffffffffffffff169050919050565b600061069182610a37565b90508073ffffffffffffffffffffffffffffffffffffffff168373ffffffffffffffffffffffffffffffffffffffff161415610702576040517f08c379a00000000000000000000000000000000000000000000000000000000081526004016106f990612d66565b60405180910390fd5b8073ffffffffffffffffffffffffffffffffffffffff1661072161112c565b73ffffffffffffffffffffffffffffffffffffffff161480610750575061074f8161074a61112c565b610eba565b5b61078f576040517f08c379a000000000000000000000000000000000000000000000000000000000815260040161078690612c86565b60405180910390fd5b6107998383611134565b505050565b6000600880549050905090565b6107bc6107b661112c565b826111ed565b6107fb576040517f08c379a00000000000000000000000000000000000000000000000000000000081526004016107f290612d86565b60405180910390fd5b6108068383836112cb565b505050565b600061081683610ae9565b8210610857576040517f08c379a000000000000000000000000000000000000000000000000000000000815260040161084e90612b46565b60405180910390fd5b600660008473ffffffffffffffffffffffffffffffffffffffff1673ffffffffffffffffffffffffffffffffffffffff168152602001908152602001600020600083815260200190815260200160002054905092915050565b605481565b6108bd61112c565b73ffffffffffffffffffffffffffffffffffffffff166108db610c29565b73ffffffffffffffffffffffffffffffffffffffff1614610931576040517f08c379a000000000000000000000000000000000000000000000000000000000815260040161092890612d26565b60405180910390fd5b60004790503373ffffffffffffffffffffffffffffffffffffffff166108fc829081150290604051600060405180830381858888f1935050505015801561097c573d6000803e3d6000fd5b5050565b61099b83838360405180602001604052806000815250610db1565b505050565b60006109aa61079e565b82106109eb576040517f08c379a00000000000000000000000000000000000000000000000000000000081526004016109e290612da6565b60405180910390fd5b60088281548110610a25577f4e487b7100000000000000000000000000000000000000000000000000000000600052603260045260246000fd5b90600052602060002001549050919050565b6000806002600084815260200190815260200160002060009054906101000a900473ffffffffffffffffffffffffffffffffffffffff169050600073ffffffffffffffffffffffffffffffffffffffff168173ffffffffffffffffffffffffffffffffffffffff161415610ae0576040517f08c379a0000000000000000000000000000000000000000000000000000000008152600401610ad790612cc6565b60405180910390fd5b80915050919050565b60008073ffffffffffffffffffffffffffffffffffffffff168273ffffffffffffffffffffffffffffffffffffffff161415610b5a576040517f08c379a0000000000000000000000000000000000000000000000000000000008152600401610b5190612ca6565b60405180910390fd5b600360008373ffffffffffffffffffffffffffffffffffffffff1673ffffffffffffffffffffffffffffffffffffffff168152602001908152602001600020549050919050565b610ba961112c565b73ffffffffffffffffffffffffffffffffffffffff16610bc7610c29565b73ffffffffffffffffffffffffffffffffffffffff1614610c1d576040517f08c379a0000000000000000000000000000000000000000000000000000000008152600401610c1490612d26565b60405180910390fd5b610c276000611532565b565b6000600a60009054906101000a900473ffffffffffffffffffffffffffffffffffffffff16905090565b606060018054610c6290612feb565b80601f0160208091040260200160405190810160405280929190818152602001828054610c8e90612feb565b8015610cdb5780601f10610cb057610100808354040283529160200191610cdb565b820191906000526020600020905b815481529060010190602001808311610cbe57829003601f168201915b5050505050905090565b655af3107a400081565b610d01610cfa61112c565b83836115f8565b5050565b6054610d0f61079e565b10610d4f576040517f08c379a0000000000000000000000000000000000000000000000000000000008152600401610d4690612b86565b60405180910390fd5b34655af3107a40001115610d98576040517f08c379a0000000000000000000000000000000000000000000000000000000008152600401610d8f90612c46565b60405180910390fd5b6000610da261079e565b9050610dae3382611765565b50565b610dc2610dbc61112c565b836111ed565b610e01576040517f08c379a0000000000000000000000000000000000000000000000000000000008152600401610df890612d86565b60405180910390fd5b610e0d84848484611783565b50505050565b6060610e1e826110c0565b610e5d576040517f08c379a0000000000000000000000000000000000000000000000000000000008152600401610e5490612d46565b60405180910390fd5b6000610e676117df565b90506000815111610e875760405180602001604052806000815250610eb2565b80610e9184611871565b604051602001610ea2929190612a7e565b6040516020818303038152906040525b915050919050565b6000600560008473ffffffffffffffffffffffffffffffffffffffff1673ffffffffffffffffffffffffffffffffffffffff16815260200190815260200160002060008373ffffffffffffffffffffffffffffffffffffffff1673ffffffffffffffffffffffffffffffffffffffff16815260200190815260200160002060009054906101000a900460ff16905092915050565b610f5661112c565b73ffffffffffffffffffffffffffffffffffffffff16610f74610c29565b73ffffffffffffffffffffffffffffffffffffffff1614610fca576040517f08c379a0000000000000000000000000000000000000000000000000000000008152600401610fc190612d26565b60405180910390fd5b600073ffffffffffffffffffffffffffffffffffffffff168173ffffffffffffffffffffffffffffffffffffffff16141561103a576040517f08c379a000000000000000000000000000000000000000000000000000000000815260040161103190612ba6565b60405180910390fd5b61104381611532565b50565b60007f780e9d63000000000000000000000000000000000000000000000000000000007bffffffffffffffffffffffffffffffffffffffffffffffffffffffff1916827bffffffffffffffffffffffffffffffffffffffffffffffffffffffff191614806110b957506110b882611a1e565b5b9050919050565b60008073ffffffffffffffffffffffffffffffffffffffff166002600084815260200190815260200160002060009054906101000a900473ffffffffffffffffffffffffffffffffffffffff1673ffffffffffffffffffffffffffffffffffffffff1614159050919050565b600033905090565b816004600083815260200190815260200160002060006101000a81548173ffffffffffffffffffffffffffffffffffffffff021916908373ffffffffffffffffffffffffffffffffffffffff160217905550808273ffffffffffffffffffffffffffffffffffffffff166111a783610a37565b73ffffffffffffffffffffffffffffffffffffffff167f8c5be1e5ebec7d5bd14f71427d1e84f3dd0314c0f7b2291e5b200ac8c7c3b92560405160405180910390a45050565b60006111f8826110c0565b611237576040517f08c379a000000000000000000000000000000000000000000000000000000000815260040161122e90612c66565b60405180910390fd5b600061124283610a37565b90508073ffffffffffffffffffffffffffffffffffffffff168473ffffffffffffffffffffffffffffffffffffffff16148061128457506112838185610eba565b5b806112c257508373ffffffffffffffffffffffffffffffffffffffff166112aa84610601565b73ffffffffffffffffffffffffffffffffffffffff16145b91505092915050565b8273ffffffffffffffffffffffffffffffffffffffff166112eb82610a37565b73ffffffffffffffffffffffffffffffffffffffff1614611341576040517f08c379a000000000000000000000000000000000000000000000000000000000815260040161133890612bc6565b60405180910390fd5b600073ffffffffffffffffffffffffffffffffffffffff168273ffffffffffffffffffffffffffffffffffffffff1614156113b1576040517f08c379a00000000000000000000000000000000000000000000000000000000081526004016113a890612c06565b60405180910390fd5b6113bc838383611b00565b6113c7600082611134565b6001600360008573ffffffffffffffffffffffffffffffffffffffff1673ffffffffffffffffffffffffffffffffffffffff16815260200190815260200160002060008282546114179190612f01565b925050819055506001600360008473ffffffffffffffffffffffffffffffffffffffff1673ffffffffffffffffffffffffffffffffffffffff168152602001908152602001600020600082825461146e9190612e7a565b92505081905550816002600083815260200190815260200160002060006101000a81548173ffffffffffffffffffffffffffffffffffffffff021916908373ffffffffffffffffffffffffffffffffffffffff160217905550808273ffffffffffffffffffffffffffffffffffffffff168473ffffffffffffffffffffffffffffffffffffffff167fddf252ad1be2c89b69c2b068fc378daa952ba7f163c4a11628f55a4df523b3ef60405160405180910390a461152d838383611b10565b505050565b6000600a60009054906101000a900473ffffffffffffffffffffffffffffffffffffffff16905081600a60006101000a81548173ffffffffffffffffffffffffffffffffffffffff021916908373ffffffffffffffffffffffffffffffffffffffff1602179055508173ffffffffffffffffffffffffffffffffffffffff168173ffffffffffffffffffffffffffffffffffffffff167f8be0079c531659141344cd1fd0a4f28419497f9722a3daafe3b4186f6b6457e060405160405180910390a35050565b8173ffffffffffffffffffffffffffffffffffffffff168373ffffffffffffffffffffffffffffffffffffffff161415611667576040517f08c379a000000000000000000000000000000000000000000000000000000000815260040161165e90612c26565b60405180910390fd5b80600560008573ffffffffffffffffffffffffffffffffffffffff1673ffffffffffffffffffffffffffffffffffffffff16815260200190815260200160002060008473ffffffffffffffffffffffffffffffffffffffff1673ffffffffffffffffffffffffffffffffffffffff16815260200190815260200160002060006101000a81548160ff0219169083151502179055508173ffffffffffffffffffffffffffffffffffffffff168373ffffffffffffffffffffffffffffffffffffffff167f17307eab39ab6107e8899845ad3d59bd9653f200f220920489ca2b5937696c31836040516117589190612b09565b60405180910390a3505050565b61177f828260405180602001604052806000815250611b15565b5050565b61178e8484846112cb565b61179a84848484611b70565b6117d9576040517f08c379a00000000000000000000000000000000000000000000000000000000081526004016117d090612b66565b60405180910390fd5b50505050565b6060600b80546117ee90612feb565b80601f016020809104026020016040519081016040528092919081815260200182805461181a90612feb565b80156118675780601f1061183c57610100808354040283529160200191611867565b820191906000526020600020905b81548152906001019060200180831161184a57829003601f168201915b5050505050905090565b606060008214156118b9576040518060400160405280600181526020017f30000000000000000000000000000000000000000000000000000000000000008152509050611a19565b600082905060005b600082146118eb5780806118d49061304e565b915050600a826118e49190612ed0565b91506118c1565b60008167ffffffffffffffff81111561192d577f4e487b7100000000000000000000000000000000000000000000000000000000600052604160045260246000fd5b6040519080825280601f01601f19166020018201604052801561195f5781602001600182028036833780820191505090505b5090505b60008514611a12576001826119789190612f01565b9150600a856119879190613097565b60306119939190612e7a565b60f81b8183815181106119cf577f4e487b7100000000000000000000000000000000000000000000000000000000600052603260045260246000fd5b60200101907effffffffffffffffffffffffffffffffffffffffffffffffffffffffffffff1916908160001a905350600a85611a0b9190612ed0565b9450611963565b8093505050505b919050565b60007f80ac58cd000000000000000000000000000000000000000000000000000000007bffffffffffffffffffffffffffffffffffffffffffffffffffffffff1916827bffffffffffffffffffffffffffffffffffffffffffffffffffffffff19161480611ae957507f5b5e139f000000000000000000000000000000000000000000000000000000007bffffffffffffffffffffffffffffffffffffffffffffffffffffffff1916827bffffffffffffffffffffffffffffffffffffffffffffffffffffffff1916145b80611af95750611af882611d07565b5b9050919050565b611b0b838383611d71565b505050565b505050565b611b1f8383611e85565b611b2c6000848484611b70565b611b6b576040517f08c379a0000000000000000000000000000000000000000000000000000000008152600401611b6290612b66565b60405180910390fd5b505050565b6000611b918473ffffffffffffffffffffffffffffffffffffffff1661205f565b15611cfa578373ffffffffffffffffffffffffffffffffffffffff1663150b7a02611bba61112c565b8786866040518563ffffffff1660e01b8152600401611bdc9493929190612abd565b602060405180830381600087803b158015611bf657600080fd5b505af1925050508015611c2757506040513d601f19601f82011682018060405250810190611c2491906126a0565b60015b611caa573d8060008114611c57576040519150601f19603f3d011682016040523d82523d6000602084013e611c5c565b606091505b50600081511415611ca2576040517f08c379a0000000000000000000000000000000000000000000000000000000008152600401611c9990612b66565b60405180910390fd5b805181602001fd5b63150b7a0260e01b7bffffffffffffffffffffffffffffffffffffffffffffffffffffffff1916817bffffffffffffffffffffffffffffffffffffffffffffffffffffffff191614915050611cff565b600190505b949350505050565b60007f01ffc9a7000000000000000000000000000000000000000000000000000000007bffffffffffffffffffffffffffffffffffffffffffffffffffffffff1916827bffffffffffffffffffffffffffffffffffffffffffffffffffffffff1916149050919050565b611d7c838383612082565b600073ffffffffffffffffffffffffffffffffffffffff168373ffffffffffffffffffffffffffffffffffffffff161415611dbf57611dba81612087565b611dfe565b8173ffffffffffffffffffffffffffffffffffffffff168373ffffffffffffffffffffffffffffffffffffffff1614611dfd57611dfc83826120d0565b5b5b600073ffffffffffffffffffffffffffffffffffffffff168273ffffffffffffffffffffffffffffffffffffffff161415611e4157611e3c8161223d565b611e80565b8273ffffffffffffffffffffffffffffffffffffffff168273ffffffffffffffffffffffffffffffffffffffff1614611e7f57611e7e8282612380565b5b5b505050565b600073ffffffffffffffffffffffffffffffffffffffff168273ffffffffffffffffffffffffffffffffffffffff161415611ef5576040517f08c379a0000000000000000000000000000000000000000000000000000000008152600401611eec90612ce6565b60405180910390fd5b611efe816110c0565b15611f3e576040517f08c379a0000000000000000000000000000000000000000000000000000000008152600401611f3590612be6565b60405180910390fd5b611f4a60008383611b00565b6001600360008473ffffffffffffffffffffffffffffffffffffffff1673ffffffffffffffffffffffffffffffffffffffff1681526020019081526020016000206000828254611f9a9190612e7a565b92505081905550816002600083815260200190815260200160002060006101000a81548173ffffffffffffffffffffffffffffffffffffffff021916908373ffffffffffffffffffffffffffffffffffffffff160217905550808273ffffffffffffffffffffffffffffffffffffffff16600073ffffffffffffffffffffffffffffffffffffffff167fddf252ad1be2c89b69c2b068fc378daa952ba7f163c4a11628f55a4df523b3ef60405160405180910390a461205b60008383611b10565b5050565b6000808273ffffffffffffffffffffffffffffffffffffffff163b119050919050565b505050565b6008805490506009600083815260200190815260200160002081905550600881908060018154018082558091505060019003906000526020600020016000909190919091505550565b600060016120dd84610ae9565b6120e79190612f01565b90506000600760008481526020019081526020016000205490508181146121cc576000600660008673ffffffffffffffffffffffffffffffffffffffff1673ffffffffffffffffffffffffffffffffffffffff168152602001908152602001600020600084815260200190815260200160002054905080600660008773ffffffffffffffffffffffffffffffffffffffff1673ffffffffffffffffffffffffffffffffffffffff168152602001908152602001600020600084815260200190815260200160002081905550816007600083815260200190815260200160002081905550505b6007600084815260200190815260200160002060009055600660008573ffffffffffffffffffffffffffffffffffffffff1673ffffffffffffffffffffffffffffffffffffffff16815260200190815260200160002060008381526020019081526020016000206000905550505050565b600060016008805490506122519190612f01565b90506000600960008481526020019081526020016000205490506000600883815481106122a7577f4e487b7100000000000000000000000000000000000000000000000000000000600052603260045260246000fd5b9060005260206000200154905080600883815481106122ef577f4e487b7100000000000000000000000000000000000000000000000000000000600052603260045260246000fd5b906000526020600020018190555081600960008381526020019081526020016000208190555060096000858152602001908152602001600020600090556008805480612364577f4e487b7100000000000000000000000000000000000000000000000000000000600052603160045260246000fd5b6001900381819060005260206000200160009055905550505050565b600061238b83610ae9565b905081600660008573ffffffffffffffffffffffffffffffffffffffff1673ffffffffffffffffffffffffffffffffffffffff168152602001908152602001600020600083815260200190815260200160002081905550806007600084815260200190815260200160002081905550505050565b600061241261240d84612e06565b612de1565b90508281526020810184848401111561242a57600080fd5b612435848285612fa9565b509392505050565b60008135905061244c81613703565b92915050565b6000813590506124618161371a565b92915050565b60008135905061247681613731565b92915050565b60008151905061248b81613731565b92915050565b600082601f8301126124a257600080fd5b81356124b28482602086016123ff565b91505092915050565b6000813590506124ca81613748565b92915050565b6000602082840312156124e257600080fd5b60006124f08482850161243d565b91505092915050565b6000806040838503121561250c57600080fd5b600061251a8582860161243d565b925050602061252b8582860161243d565b9150509250929050565b60008060006060848603121561254a57600080fd5b60006125588682870161243d565b93505060206125698682870161243d565b925050604061257a868287016124bb565b9150509250925092565b6000806000806080858703121561259a57600080fd5b60006125a88782880161243d565b94505060206125b98782880161243d565b93505060406125ca878288016124bb565b925050606085013567ffffffffffffffff8111156125e757600080fd5b6125f387828801612491565b91505092959194509250565b6000806040838503121561261257600080fd5b60006126208582860161243d565b925050602061263185828601612452565b9150509250929050565b6000806040838503121561264e57600080fd5b600061265c8582860161243d565b925050602061266d858286016124bb565b9150509250929050565b60006020828403121561268957600080fd5b600061269784828501612467565b91505092915050565b6000602082840312156126b257600080fd5b60006126c08482850161247c565b91505092915050565b6000602082840312156126db57600080fd5b60006126e9848285016124bb565b91505092915050565b6126fb81612f35565b82525050565b61270a81612f47565b82525050565b600061271b82612e37565b6127258185612e4d565b9350612735818560208601612fb8565b61273e81613184565b840191505092915050565b600061275482612e42565b61275e8185612e5e565b935061276e818560208601612fb8565b61277781613184565b840191505092915050565b600061278d82612e42565b6127978185612e6f565b93506127a7818560208601612fb8565b80840191505092915050565b60006127c0602b83612e5e565b91506127cb82613195565b604082019050919050565b60006127e3603283612e5e565b91506127ee826131e4565b604082019050919050565b6000612806602883612e5e565b915061281182613233565b604082019050919050565b6000612829602683612e5e565b915061283482613282565b604082019050919050565b600061284c602583612e5e565b9150612857826132d1565b604082019050919050565b600061286f601c83612e5e565b915061287a82613320565b602082019050919050565b6000612892602483612e5e565b915061289d82613349565b604082019050919050565b60006128b5601983612e5e565b91506128c082613398565b602082019050919050565b60006128d8601f83612e5e565b91506128e3826133c1565b602082019050919050565b60006128fb602c83612e5e565b9150612906826133ea565b604082019050919050565b600061291e603883612e5e565b915061292982613439565b604082019050919050565b6000612941602a83612e5e565b915061294c82613488565b604082019050919050565b6000612964602983612e5e565b915061296f826134d7565b604082019050919050565b6000612987602083612e5e565b915061299282613526565b602082019050919050565b60006129aa602c83612e5e565b91506129b58261354f565b604082019050919050565b60006129cd602083612e5e565b91506129d88261359e565b602082019050919050565b60006129f0602f83612e5e565b91506129fb826135c7565b604082019050919050565b6000612a13602183612e5e565b9150612a1e82613616565b604082019050919050565b6000612a36603183612e5e565b9150612a4182613665565b604082019050919050565b6000612a59602c83612e5e565b9150612a64826136b4565b604082019050919050565b612a7881612f9f565b82525050565b6000612a8a8285612782565b9150612a968284612782565b91508190509392505050565b6000602082019050612ab760008301846126f2565b92915050565b6000608082019050612ad260008301876126f2565b612adf60208301866126f2565b612aec6040830185612a6f565b8181036060830152612afe8184612710565b905095945050505050565b6000602082019050612b1e6000830184612701565b92915050565b60006020820190508181036000830152612b3e8184612749565b905092915050565b60006020820190508181036000830152612b5f816127b3565b9050919050565b60006020820190508181036000830152612b7f816127d6565b9050919050565b60006020820190508181036000830152612b9f816127f9565b9050919050565b60006020820190508181036000830152612bbf8161281c565b9050919050565b60006020820190508181036000830152612bdf8161283f565b9050919050565b60006020820190508181036000830152612bff81612862565b9050919050565b60006020820190508181036000830152612c1f81612885565b9050919050565b60006020820190508181036000830152612c3f816128a8565b9050919050565b60006020820190508181036000830152612c5f816128cb565b9050919050565b60006020820190508181036000830152612c7f816128ee565b9050919050565b60006020820190508181036000830152612c9f81612911565b9050919050565b60006020820190508181036000830152612cbf81612934565b9050919050565b60006020820190508181036000830152612cdf81612957565b9050919050565b60006020820190508181036000830152612cff8161297a565b9050919050565b60006020820190508181036000830152612d1f8161299d565b9050919050565b60006020820190508181036000830152612d3f816129c0565b9050919050565b60006020820190508181036000830152612d5f816129e3565b9050919050565b60006020820190508181036000830152612d7f81612a06565b9050919050565b60006020820190508181036000830152612d9f81612a29565b9050919050565b60006020820190508181036000830152612dbf81612a4c565b9050919050565b6000602082019050612ddb6000830184612a6f565b92915050565b6000612deb612dfc565b9050612df7828261301d565b919050565b6000604051905090565b600067ffffffffffffffff821115612e2157612e20613155565b5b612e2a82613184565b9050602081019050919050565b600081519050919050565b600081519050919050565b600082825260208201905092915050565b600082825260208201905092915050565b600081905092915050565b6000612e8582612f9f565b9150612e9083612f9f565b9250827fffffffffffffffffffffffffffffffffffffffffffffffffffffffffffffffff03821115612ec557612ec46130c8565b5b828201905092915050565b6000612edb82612f9f565b9150612ee683612f9f565b925082612ef657612ef56130f7565b5b828204905092915050565b6000612f0c82612f9f565b9150612f1783612f9f565b925082821015612f2a57612f296130c8565b5b828203905092915050565b6000612f4082612f7f565b9050919050565b60008115159050919050565b60007fffffffff0000000000000000000000000000000000000000000000000000000082169050919050565b600073ffffffffffffffffffffffffffffffffffffffff82169050919050565b6000819050919050565b82818337600083830152505050565b60005b83811015612fd6578082015181840152602081019050612fbb565b83811115612fe5576000848401525b50505050565b6000600282049050600182168061300357607f821691505b6020821081141561301757613016613126565b5b50919050565b61302682613184565b810181811067ffffffffffffffff8211171561304557613044613155565b5b80604052505050565b600061305982612f9f565b91507fffffffffffffffffffffffffffffffffffffffffffffffffffffffffffffffff82141561308c5761308b6130c8565b5b600182019050919050565b60006130a282612f9f565b91506130ad83612f9f565b9250826130bd576130bc6130f7565b5b828206905092915050565b7f4e487b7100000000000000000000000000000000000000000000000000000000600052601160045260246000fd5b7f4e487b7100000000000000000000000000000000000000000000000000000000600052601260045260246000fd5b7f4e487b7100000000000000000000000000000000000000000000000000000000600052602260045260246000fd5b7f4e487b7100000000000000000000000000000000000000000000000000000000600052604160045260246000fd5b6000601f19601f8301169050919050565b7f455243373231456e756d657261626c653a206f776e657220696e646578206f7560008201527f74206f6620626f756e6473000000000000000000000000000000000000000000602082015250565b7f4552433732313a207472616e7366657220746f206e6f6e20455243373231526560008201527f63656976657220696d706c656d656e7465720000000000000000000000000000602082015250565b7f507572636861736520776f756c6420657863656564206d617820737570706c7960008201527f206f66204e465473000000000000000000000000000000000000000000000000602082015250565b7f4f776e61626c653a206e6577206f776e657220697320746865207a65726f206160008201527f6464726573730000000000000000000000000000000000000000000000000000602082015250565b7f4552433732313a207472616e736665722066726f6d20696e636f72726563742060008201527f6f776e6572000000000000000000000000000000000000000000000000000000602082015250565b7f4552433732313a20746f6b656e20616c7265616479206d696e74656400000000600082015250565b7f4552433732313a207472616e7366657220746f20746865207a65726f2061646460008201527f7265737300000000000000000000000000000000000000000000000000000000602082015250565b7f4552433732313a20617070726f766520746f2063616c6c657200000000000000600082015250565b7f45746865722076616c75652073656e74206973206e6f7420636f727265637400600082015250565b7f4552433732313a206f70657261746f7220717565727920666f72206e6f6e657860008201527f697374656e7420746f6b656e0000000000000000000000000000000000000000602082015250565b7f4552433732313a20617070726f76652063616c6c6572206973206e6f74206f7760008201527f6e6572206e6f7220617070726f76656420666f7220616c6c0000000000000000602082015250565b7f4552433732313a2062616c616e636520717565727920666f7220746865207a6560008201527f726f206164647265737300000000000000000000000000000000000000000000602082015250565b7f4552433732313a206f776e657220717565727920666f72206e6f6e657869737460008201527f656e7420746f6b656e0000000000000000000000000000000000000000000000602082015250565b7f4552433732313a206d696e7420746f20746865207a65726f2061646472657373600082015250565b7f4552433732313a20617070726f76656420717565727920666f72206e6f6e657860008201527f697374656e7420746f6b656e0000000000000000000000000000000000000000602082015250565b7f4f776e61626c653a2063616c6c6572206973206e6f7420746865206f776e6572600082015250565b7f4552433732314d657461646174613a2055524920717565727920666f72206e6f60008201527f6e6578697374656e7420746f6b656e0000000000000000000000000000000000602082015250565b7f4552433732313a20617070726f76616c20746f2063757272656e74206f776e6560008201527f7200000000000000000000000000000000000000000000000000000000000000602082015250565b7f4552433732313a207472616e736665722063616c6c6572206973206e6f74206f60008201527f776e6572206e6f7220617070726f766564000000000000000000000000000000602082015250565b7f455243373231456e756d657261626c653a20676c6f62616c20696e646578206f60008201527f7574206f6620626f756e64730000000000000000000000000000000000000000602082015250565b61370c81612f35565b811461371757600080fd5b50565b61372381612f47565b811461372e57600080fd5b50565b61373a81612f53565b811461374557600080fd5b50565b61375181612f9f565b811461375c57600080fd5b5056fea26469706673582212206a880ef6c732a0101d1e2a973ac7ea4277e4e559e8f4bd0dcdf2eff97f62524364736f6c63430008040033",
  "devdoc": {
    "kind": "dev",
    "methods": {
      "approve(address,uint256)": {
        "details": "See {IERC721-approve}."
      },
      "balanceOf(address)": {
        "details": "See {IERC721-balanceOf}."
      },
      "getApproved(uint256)": {
        "details": "See {IERC721-getApproved}."
      },
      "isApprovedForAll(address,address)": {
        "details": "See {IERC721-isApprovedForAll}."
      },
      "name()": {
        "details": "See {IERC721Metadata-name}."
      },
      "owner()": {
        "details": "Returns the address of the current owner."
      },
      "ownerOf(uint256)": {
        "details": "See {IERC721-ownerOf}."
      },
      "renounceOwnership()": {
        "details": "Leaves the contract without owner. It will not be possible to call `onlyOwner` functions anymore. Can only be called by the current owner. NOTE: Renouncing ownership will leave the contract without an owner, thereby removing any functionality that is only available to the owner."
      },
      "safeTransferFrom(address,address,uint256)": {
        "details": "See {IERC721-safeTransferFrom}."
      },
      "safeTransferFrom(address,address,uint256,bytes)": {
        "details": "See {IERC721-safeTransferFrom}."
      },
      "setApprovalForAll(address,bool)": {
        "details": "See {IERC721-setApprovalForAll}."
      },
      "supportsInterface(bytes4)": {
        "details": "See {IERC165-supportsInterface}."
      },
      "symbol()": {
        "details": "See {IERC721Metadata-symbol}."
      },
      "tokenByIndex(uint256)": {
        "details": "See {IERC721Enumerable-tokenByIndex}."
      },
      "tokenOfOwnerByIndex(address,uint256)": {
        "details": "See {IERC721Enumerable-tokenOfOwnerByIndex}."
      },
      "tokenURI(uint256)": {
        "details": "See {IERC721Metadata-tokenURI}."
      },
      "totalSupply()": {
        "details": "See {IERC721Enumerable-totalSupply}."
      },
      "transferFrom(address,address,uint256)": {
        "details": "See {IERC721-transferFrom}."
      },
      "transferOwnership(address)": {
        "details": "Transfers ownership of the contract to a new account (`newOwner`). Can only be called by the current owner."
      }
    },
    "version": 1
  },
  "userdoc": {
    "kind": "user",
    "methods": {},
    "version": 1
  },
  "storageLayout": {
    "storage": [
      {
        "astId": 130,
        "contract": "contracts/Crypt0Donuts.sol:Crypt0Donuts",
        "label": "_name",
        "offset": 0,
        "slot": "0",
        "type": "t_string_storage"
      },
      {
        "astId": 132,
        "contract": "contracts/Crypt0Donuts.sol:Crypt0Donuts",
        "label": "_symbol",
        "offset": 0,
        "slot": "1",
        "type": "t_string_storage"
      },
      {
        "astId": 136,
        "contract": "contracts/Crypt0Donuts.sol:Crypt0Donuts",
        "label": "_owners",
        "offset": 0,
        "slot": "2",
        "type": "t_mapping(t_uint256,t_address)"
      },
      {
        "astId": 140,
        "contract": "contracts/Crypt0Donuts.sol:Crypt0Donuts",
        "label": "_balances",
        "offset": 0,
        "slot": "3",
        "type": "t_mapping(t_address,t_uint256)"
      },
      {
        "astId": 144,
        "contract": "contracts/Crypt0Donuts.sol:Crypt0Donuts",
        "label": "_tokenApprovals",
        "offset": 0,
        "slot": "4",
        "type": "t_mapping(t_uint256,t_address)"
      },
      {
        "astId": 150,
        "contract": "contracts/Crypt0Donuts.sol:Crypt0Donuts",
        "label": "_operatorApprovals",
        "offset": 0,
        "slot": "5",
        "type": "t_mapping(t_address,t_mapping(t_address,t_bool))"
      },
      {
        "astId": 1119,
        "contract": "contracts/Crypt0Donuts.sol:Crypt0Donuts",
        "label": "_ownedTokens",
        "offset": 0,
        "slot": "6",
        "type": "t_mapping(t_address,t_mapping(t_uint256,t_uint256))"
      },
      {
        "astId": 1123,
        "contract": "contracts/Crypt0Donuts.sol:Crypt0Donuts",
        "label": "_ownedTokensIndex",
        "offset": 0,
        "slot": "7",
        "type": "t_mapping(t_uint256,t_uint256)"
      },
      {
        "astId": 1126,
        "contract": "contracts/Crypt0Donuts.sol:Crypt0Donuts",
        "label": "_allTokens",
        "offset": 0,
        "slot": "8",
        "type": "t_array(t_uint256)dyn_storage"
      },
      {
        "astId": 1130,
        "contract": "contracts/Crypt0Donuts.sol:Crypt0Donuts",
        "label": "_allTokensIndex",
        "offset": 0,
        "slot": "9",
        "type": "t_mapping(t_uint256,t_uint256)"
      },
      {
        "astId": 7,
        "contract": "contracts/Crypt0Donuts.sol:Crypt0Donuts",
        "label": "_owner",
        "offset": 0,
        "slot": "10",
        "type": "t_address"
      },
      {
        "astId": 2388,
        "contract": "contracts/Crypt0Donuts.sol:Crypt0Donuts",
        "label": "_baseTokenURI",
        "offset": 0,
        "slot": "11",
        "type": "t_string_storage"
      }
    ],
    "types": {
      "t_address": {
        "encoding": "inplace",
        "label": "address",
        "numberOfBytes": "20"
      },
      "t_array(t_uint256)dyn_storage": {
        "base": "t_uint256",
        "encoding": "dynamic_array",
        "label": "uint256[]",
        "numberOfBytes": "32"
      },
      "t_bool": {
        "encoding": "inplace",
        "label": "bool",
        "numberOfBytes": "1"
      },
      "t_mapping(t_address,t_bool)": {
        "encoding": "mapping",
        "key": "t_address",
        "label": "mapping(address => bool)",
        "numberOfBytes": "32",
        "value": "t_bool"
      },
      "t_mapping(t_address,t_mapping(t_address,t_bool))": {
        "encoding": "mapping",
        "key": "t_address",
        "label": "mapping(address => mapping(address => bool))",
        "numberOfBytes": "32",
        "value": "t_mapping(t_address,t_bool)"
      },
      "t_mapping(t_address,t_mapping(t_uint256,t_uint256))": {
        "encoding": "mapping",
        "key": "t_address",
        "label": "mapping(address => mapping(uint256 => uint256))",
        "numberOfBytes": "32",
        "value": "t_mapping(t_uint256,t_uint256)"
      },
      "t_mapping(t_address,t_uint256)": {
        "encoding": "mapping",
        "key": "t_address",
        "label": "mapping(address => uint256)",
        "numberOfBytes": "32",
        "value": "t_uint256"
      },
      "t_mapping(t_uint256,t_address)": {
        "encoding": "mapping",
        "key": "t_uint256",
        "label": "mapping(uint256 => address)",
        "numberOfBytes": "32",
        "value": "t_address"
      },
      "t_mapping(t_uint256,t_uint256)": {
        "encoding": "mapping",
        "key": "t_uint256",
        "label": "mapping(uint256 => uint256)",
        "numberOfBytes": "32",
        "value": "t_uint256"
      },
      "t_string_storage": {
        "encoding": "bytes",
        "label": "string",
        "numberOfBytes": "32"
      },
      "t_uint256": {
        "encoding": "inplace",
        "label": "uint256",
        "numberOfBytes": "32"
      }
    }
  }
}